:100000000C945D000C9485000C9485000C94850084
:100010000C9485000C9485000C9485000C9485004C
:100020000C9485000C9485000C9485000C9485003C
:100030000C9485000C9485000C9485000C9485002C
:100040000C94B4030C9485000C94B7040C949104A4
:100050000C9485000C9485000C9485000C9485000C
:100060000C9485000C94850000000008000201003B
:100070000003040700000000000000000000000072
:10008000250028002B0000000000240027002A0083
:10009000040404040404040402020202020203032E
:1000A0000303030301020408102040800102040836
:1000B0001020010204081020EF1211241FBECFEF00
:1000C000D8E0DEBFCDBF23E0AAE8B2E001C01D92B8
:1000D000AF38B207E1F712E0A0E0B1E0EAE5F7E2FD
:1000E00002C005900D92AA38B107D9F710E0CDE50E
:1000F000D0E004C02197FE010E947E13CC35D107C9
:10010000C9F70E9430110C94AB130C940000CF93EC
:10011000DF931F92CDB7DEB76983DC01ED91FC91CF
:100120000280F381E02D41E050E0BE016F5F7F4F20
:1001300009950F90DF91CF910895DC01ED91FC912D
:10014000048CF58DE02D099591E089270895862F7F
:10015000089581E0862708953FB7F89480918F0233
:1001600090919002A0919102B091920226B5A89B25
:1001700005C02F3F19F00196A11DB11D3FBFBA2F39
:10018000A92F982F8827820F911DA11DB11DBC0199
:10019000CD0142E0660F771F881F991F4A95D1F75E
:1001A0000895CF92DF92EF92FF920F931F93CF9318
:1001B000DF936C017A018B01C0E0D0E0CE15DF0542
:1001C00089F0D8016D918D01D601ED91FC910190DE
:1001D000F081E02DC6010995892B11F47E0102C042
:1001E0002196ECCFC701DF91CF911F910F91FF9026
:1001F000EF90DF90CF900895FC01918D828D98173C
:1002000061F0828DDF01A80FB11D5D968C91928DFA
:100210009F5F9F73928F90E008958FEF9FEF0895F7
:10022000FC01918D828D981731F0828DE80FF11DC0
:10023000858D90E008958FEF9FEF0895FC01918DDB
:10024000228D892F90E0805C9F4F821B91098F73D4
:10025000992708958CEB92E00E941E0121E0892BE2
:1002600009F420E0822F0895FC01848DDF01A80F9E
:10027000B11DA35ABF4F2C91848D90E001968F73CE
:100280009927848FA689B7892C93A089B1898C91ED
:1002900080648C93938D848D981306C00288F389B3
:1002A000E02D80818F7D80830895EF92FF920F93E0
:1002B0001F93CF93DF93EC0181E0888F9B8D8C8D12
:1002C000981305C0E889F989808185FD24C0F62E40
:1002D0000B8D10E00F5F1F4F0F731127E02E8C8DD9
:1002E000E8120CC00FB607FCFACFE889F9898081C3
:1002F00085FFF5CFCE010E943401F1CF8B8DFE0139
:10030000E80FF11DE35AFF4FF0820B8FEA89FB895A
:100310008081806207C0EE89FF896083E889F9895E
:1003200080818064808381E090E0DF91CF911F9194
:100330000F91FF90EF900895CF93DF93EC01888D9C
:100340008823C9F0EA89FB89808185FD05C0A889D9
:10035000B9898C9186FD0FC00FB607FCF5CF80815F
:1003600085FFF2CFA889B9898C9185FFEDCFCE01A9
:100370000E943401E7CFDF91CF91089580E090E0B3
:10038000892B29F00E942A0181110C940000089504
:10039000CF92DF92EF92FF920F931F93CF93DF9351
:1003A000CDB7DEB7AF970FB6F894DEBF0FBECDBFA7
:1003B0007C016A0104ED11E01A8309831C861B8607
:1003C00088EE93E0A0E0B0E08D879E87AF87B88B82
:1003D0008CE791E09A878987188F0F8B198E1A8E78
:1003E0001B8E1C8E84E089A31DA30CA31EA21FA23A
:1003F00018A619A68091B6029091B702A091B802F2
:10040000B091B9028CA79DA7AEA7BFA78B839C8391
:10041000AD83BE8318861F82AE014C5D5F4FCE0157
:1004200001960E94860E81309105B1F4D701ED91BD
:10043000FC910484F585E02D1BA70AA78EA19FA13E
:10044000A8A5B9A58CA79DA7AEA7BFA7A601BE0169
:10045000665D7F4FC7010995AF960FB6F894DEBF72
:100460000FBECDBFDF91CF911F910F91FF90EF9005
:10047000DF90CF9008950E9484136115710579F083
:10048000FB0101900020E9F73197AF01461B570BA4
:10049000DC01ED91FC910280F381E02D099480E074
:1004A00090E008950F931F93CF93DF93EC010E9488
:1004B0003D028C016CED71E0CE010E943D02800F87
:1004C000911FDF91CF911F910F91089508958CBDD9
:1004D0009DBD08958F929F92AF92BF92CF92DF926F
:1004E000EF92FF920F931F93CF936C015B017A0100
:1004F000FC01C485C43041F481E090E0F6019383AF
:10050000828380E090E04EC08A014130584010F074
:1005100000E018E080E590E00E9467028C2F0E94C6
:100520006A0E4C0163E070E08C2F0E947E098731D7
:1005300011F08C3121F48016910660F302C000E0C6
:1005400010E080E590E00E9467029801A50160E05C
:1005500070E08C2F0E94050E60E270E08C2F0E94EC
:10056000011162E070E08C2F0E947E0984FD10C0B2
:1005700063E070E08C2F0E947E09811104C08C2FF3
:100580000E944207B9CF80E590E00E946702E9CF60
:1005900040E162E070E08C2F0E947409012B09F4A5
:1005A000ABCFC701CF911F910F91FF90EF90DF90DC
:1005B000CF90BF90AF909F908F9008958F929F9211
:1005C000AF92BF92CF92DF92EF92FF926B017C01CC
:1005D0000E94AC004B015C01C114D104E104F104A0
:1005E000F1F00E94AC00DC01CB0188199909AA093D
:1005F000BB09883E9340A105B10570F321E0C21A02
:10060000D108E108F10888EE880E83E0981EA11C4D
:10061000B11CC114D104E104F10419F7DDCFFF903E
:10062000EF90DF90CF90BF90AF909F908F90089504
:10063000CF92DF92FF920F931F93CF93DF93FC0132
:100640002485243009F077C06A01EB018C01F12C7C
:100650008F2D0E941108811103C0F801F48607C094
:100660008B7F8831D1F3F394F4E0FF12F1CFF801DE
:100670008485843009F45FC020910001309101012C
:100680002F5F3F4F11F420E030EC309301012093B5
:100690000001409100015091010120E061E00E94C1
:1006A0005607F801F4848A818F3F51F48B818F3F84
:1006B00091F48C818F3F79F48D818F3F61F438C044
:1006C000811109C08B81811106C08C81811103C009
:1006D0008D81882369F1C114D10451F180E590E046
:1006E0000E946702BE016E5F7F4F8F2D90E0982FB2
:1006F000882744E050E0845F9B4F0E94A305B60129
:100700008F2D0E94DC0964E070E08F2D0E940111A2
:10071000C8010E942D0A873189F061E070E080E015
:1007200090E00E94DE02C8010E942D0A8111F0CFE4
:1007300084E0F801848780E090E002C081E090E0EE
:10074000DF91CF911F910F91FF90DF90CF9008958F
:100750002FB7F89460918B0270918C0280918D027A
:1007600090918E022FBF08951F920F920FB60F9295
:1007700011242F933F938F939F93AF93BF938091B7
:100780008B0290918C02A0918D02B0918E023091DB
:100790008A0223E0230F2D3720F40196A11DB11DFD
:1007A00005C026E8230F0296A11DB11D20938A02E1
:1007B00080938B0290938C02A0938D02B0938E0253
:1007C00080918F0290919002A0919102B09192023B
:1007D0000196A11DB11D80938F0290939002A0936A
:1007E0009102B0939202BF91AF919F918F913F91EF
:1007F0002F910F900FBE0F901F9018954F925F9200
:100800006F927F92EF92FF920F931F93CF93DF939C
:10081000CDB7DEB7A1970FB6F894DEBF0FBECDBF40
:100820007C01FA01CB0119A2223008F42AE08E01E2
:100830000F5D1F4F422E512C612C712CBF01A30163
:1008400092010E948913F901CA01015011096A300D
:1008500014F4605D01C0695CD8016C93232B242BD8
:10086000252B61F7B801C7010E943D02A1960FB682
:10087000F894DEBF0FBECDBFDF91CF911F910F91D6
:10088000FF90EF907F906F905F904F9008958F92C0
:100890009F92AF92BF92CF92DF92EF92FF920F930F
:1008A0001F93CF93DF937C01EB016C0182E0C80EB4
:1008B000D11C4701E5E08E0E911C00E010E0F6012E
:1008C00041916F0150E060E070E02AE0CE010E94AB
:1008D000FE035C01E881F9810190F081E02D6EE278
:1008E000CE0109958A0D9B1D080F191FC814D90444
:1008F00031F7F701458150E060E070E02AE0CE0179
:100900000E94FE03800F911FDF91CF911F910F91E5
:10091000FF90EF90DF90CF90BF90AF909F908F901F
:1009200008951F920F920FB60F9211242F933F93A9
:100930004F935F936F937F938F939F93AF93BF93E7
:10094000EF93FF938CEB92E00E943401FF91EF91C3
:10095000BF91AF919F918F917F916F915F914F91D7
:100960003F912F910F900FBE0F901F9018951F92DF
:100970000F920FB60F9211242F938F939F93EF93A3
:10098000FF93E091CC02F091CD028081E091D20200
:10099000F091D30282FD12C090818091D5028F5FC9
:1009A0008F732091D602821751F0E091D502F0E0CA
:1009B000E454FD4F958F8093D50201C08081FF9153
:1009C000EF919F918F912F910F900FBE0F901F90DD
:1009D00018950895CF93DF931F92CDB7DEB7698343
:1009E000DC01ED91FC910280F381E02D41E050E0CB
:1009F000BE016F5F7F4F09950F90DF91CF910895F2
:100A00001F93CF93DF93182F66E270E00E947E0958
:100A1000C82FD0E067E270E0812F0E947E09DC2FB2
:100A2000CC279E01282BC901DF91CF911F910895FA
:100A3000AF92BF92CF92DF92FF920F931F93CF930B
:100A4000DF938C015B01EA01FC01C688D788F08C3A
:100A500080E590E00E9467028F2D0E946A0E8C173D
:100A60009D0720F48F2D0E946A0EEC019E01A501C6
:100A7000B6018F2D0E94050E0E946602F80186893C
:100A800097898C0F9D1F978B868BCE01DF91CF911D
:100A90001F910F91FF90DF90CF90BF90AF9008957E
:100AA0002A9A08952A9808951F93CF93DF93182FB9
:100AB00060E270E00E947E09C82FD0E061E270E041
:100AC000812F0E947E09DC2FCC279E01282BC90193
:100AD000DF91CF911F9108958EBD00000DB407FEE8
:100AE000FDCF8EB50895CF92DF92EF92FF920F93D4
:100AF0001F93CF93DF93EC017A018B016C01C40E3D
:100B0000D51ECC15DD05A9F00E9452058FE00E948C
:100B10006C058D2F0E946C058C2F0E946C05219610
:100B200080E00E946C05F80181938F010E945005BE
:100B3000E8CFC701DF91CF911F910F91FF90EF9008
:100B4000DF90CF900895CF92DF92EF92FF920F93B4
:100B50001F93CF93DF93EC017A018B016C01C40EDC
:100B6000D51ECC15DD05A1F00E94520580EF0E9434
:100B70006C058D2F0E946C058C2F0E946C052196B0
:100B8000F80181918F010E946C050E945005E9CF08
:100B9000C701DF91CF911F910F91FF90EF90DF90F0
:100BA000CF9008951F93CF93DF9300D0CDB7DEB7DA
:100BB000182F6A8399830E94520580EF0E946C056A
:100BC0009981892F0E946C05812F0E946C056A8192
:100BD000862F0E946C050E94500581E00F900F90B7
:100BE000DF91CF911F9108951F93CF93DF9300D092
:100BF000CDB7DEB7182F80E590E069837A830E9435
:100C0000670221E041E050E069817A81812F0E94F2
:100C10009D0D0E94660281E090E00F900F90DF91A1
:100C2000CF911F910895CF93DF931F92CDB7DEB779
:100C3000FC01218D328D232B49F0BE016F5F7F4F68
:100C4000808D0E94F405898190E002C08FEF9FEFB4
:100C50000F90DF91CF910895FF920F931F93CF9341
:100C6000DF93F82E80E590E00E946702C0E0D0E0BC
:100C70008F2D0E9400058C01892B21F08F2D0E9461
:100C80000005EC01C017D10799F70E946602CE015A
:100C9000DF91CF911F910F91FF900895AF92BF9276
:100CA000CF92DF92EF92FF921F93CF93DF93182F93
:100CB0005B017A0180E590E00E946702C0E0D0E02D
:100CC000812F0E9400056C01892B21F0812F0E9449
:100CD0000005EC01CC15DD0599F7209799F463E048
:100CE00070E0812F0E947E098431F1F08823E1F0C9
:100CF000C1E0D0E08C3111F4C0E0D0E0D195C195D5
:100D0000D10912C0EC16FD060CF4E7011C161D06F5
:100D10005CF420E0AE01B501812F0E949D0D60E4DE
:100D200070E0812F0E9401110E946602CE01DF91C6
:100D3000CF911F91FF90EF90DF90CF90BF90AF9039
:100D40000895CF93DF93FC01218D328D211531055C
:100D500019F48FEF9FEF11C0EC014217530708F011
:100D6000A901888D0E944E061816190694F7298D40
:100D70003A8D281B390B3A8F298FDF91CF91089537
:100D80000F931F93CF93DF931F92CDB7DEB7FC0174
:100D9000218D328D232B61F08C0141E050E0BE01AA
:100DA0006F5F7F4F808D0E944E06181619061CF04B
:100DB0008FEF9FEF08C0F801818D928D0197928F80
:100DC000818F898190E00F90DF91CF911F910F91DA
:100DD00008950F931F93CF93DF93CDB7DEB7289776
:100DE0000FB6F894DEBF0FBECDBF8C01F801818D28
:100DF000928D892B49F0D801ED91FC910680F78105
:100E0000E02DC8010995F2CF808D0E942C0618169E
:100E100019065CF548E050E0BE016F5F7F4FD801D6
:100E200058968C910E944E069C0118161906DCF407
:100E300089819A81AB81BC81F801808B918BA28BD7
:100E4000B38B8D8190E0982F88272E81820F911D82
:100E5000958B848B2F8130E0322F22278885280FB5
:100E6000311D328F218FC90102C080E090E02896A9
:100E70000FB6F894DEBF0FBECDBFDF91CF911F91AB
:100E80000F910895CF93C82F80E590E00E946702EC
:100E900060E170E08C2F0E9401114FEF62E070E082
:100EA0008C2F0E947409CF910C946602FF920F93CD
:100EB0001F93CF93DF9300D0CDB7DEB7F82E8A0112
:100EC0002A8369830E94420780E590E00E946702BE
:100ED0002A816981462F422B60E070E08F2D0E94AD
:100EE00074090115110551F40091930210919402B7
:100EF0000F5F1F4F1093940200939302412F64E001
:100F000070E08F2D0E947409402F65E070E08F2DF6
:100F10000E94740961E070E08F2D0E9401110E940F
:100F2000660281E00F900F90DF91CF911F910F919A
:100F3000FF900895BF92CF92DF92EF92FF920F93AE
:100F40001F93CF93DF9300D000D000D0CDB7DEB792
:100F5000FC01208D243009F053C06A017B018C0113
:100F6000B12C63E070E08B2D0E947E09811103C0DB
:100F7000F801B08E06C08831D9F3B394F4E0BF1203
:100F8000F0CFF801808D8430D9F196E0ECE0F1E00B
:100F9000DE01119601900D929A95E1F7F701938188
:100FA0009F779C8394819D8395819E83B7016E5F1B
:100FB0007F4F90E0982F882744E050E0845F9B4F5C
:100FC0000E94A305B601F801808D0E94DC09F8019A
:100FD000808D90E0982F882746E050E0BE016F5F3B
:100FE0007F4F8A5F9B4F0E94A305F801128E118EDE
:100FF00020E8A60162E0808D0E94560781E001C0D2
:1010000080E026960FB6F894DEBF0FBECDBFDF910D
:10101000CF911F910F91FF90EF90DF90CF90BF90F5
:1010200008951F93CF93DF931F92CDB7DEB7182F8C
:1010300080E590E00E94670263E070E0812F0E94EB
:101040007E0989830E94660289810F90DF91CF918A
:101050001F910895FC01818D928D0895FC01848972
:101060009589089524ED31E0FC0131832083FB0153
:101070004089518962897389FC0142835383648367
:1010800075830895DC01ED91FC91028CF38DE02DC8
:10109000099480E00895CF93DF931F92CDB7DEB718
:1010A0006983DC01ED91FC910280F381E02D41E048
:1010B00050E0BE016F5F7F4F09950F90DF91CF9198
:1010C0000895FC019485FB018485981303C081E099
:1010D000943009F480E0089521E0FC018485843097
:1010E00009F420E0822F08950895CF92DF92EF92C5
:1010F000FF920F931F93CF93DF93CDB7DEB7AF97D8
:101100000FB6F894DEBF0FBECDBF7C016A0104EDBF
:1011100011E01A8309831C861B8688EE93E0A0E009
:10112000B0E08D879E87AF87B88B8CE791E09A8778
:101130008987188F0F8B198E1A8E1B8E1C8E84E058
:1011400089A31DA30CA31EA21FA218A619A68091F5
:10115000B6029091B702A091B802B091B9028CA7E3
:101160009DA7AEA7BFA78B839C83AD83BE83188644
:101170001F82AE014C5D5F4FCE0101960E94860E2C
:1011800081309105B1F4D701ED91FC910288F3898A
:10119000E02D1BA70AA78EA19FA1A8A5B9A58CA782
:1011A0009DA7AEA7BFA7A601BE01665D7F4FC70181
:1011B0000995AF960FB6F894DEBF0FBECDBFDF9195
:1011C000CF911F910F91FF90EF90DF90CF900895F6
:1011D000CF93DF93EC01888D843061F00E94420749
:1011E000E88DF0E0EE0FFF1FEB56FD4F11821082ED
:1011F00084E0888FDF91CF910895EF92FF921F9343
:10120000CF93DF93FC01208D243011F080E01CC0CF
:101210007B01EC0110E0812F0E941108811102C0B6
:10122000188F05C08831E1F31F5F1430A1F7888D56
:10123000843061F3FD86EC861A8E198E20E0A701BA
:1012400062E00E94560781E0DF91CF911F91FF90ED
:10125000EF9008950F931F93CF93DF931F92CDB715
:10126000DEB78C01DC01ED91FC910480F581E02D6D
:101270000995892B51F0BE016F5F7F4FF80184857E
:101280000E94F405898190E002C08FEF9FEF0F90DC
:10129000DF91CF911F910F910895FC0184850C94EB
:1012A0004E06CF93DF931F92CDB7DEB741E050E0FB
:1012B000BE016F5F7F4FFC0184850E944E061816A9
:1012C00019061CF4898190E002C08FEF9FEF0F9008
:1012D000DF91CF910895FC018485843011F00C9446
:1012E0002C0680E090E008959B0190E00496982FF2
:1012F0008827642F820F931F0C94D2050F931F939E
:10130000CF93DF931F92CDB7DEB790E00496982F6E
:1013100088278C01060F171F0E9452058FE00E943C
:101320006C05812F0E946C05802F0E946C0580E067
:101330000E946C0589830E94500589810F90DF917E
:10134000CF911F910F910895CF93FC01C08D80E53F
:1013500090E00E94670260E270E08C2F0E94011111
:1013600062E070E08C2F0E947E0984FD19C062E06B
:1013700070E08C2F0E947E0983FF0BC048E162E081
:1013800070E08C2F0E9474090E94660280E090E059
:1013900011C00E94660280E590E00E946702E0CFE3
:1013A00040E162E070E08C2F0E9474090E946602A6
:1013B00081E090E0CF910895CF93DF93C82FD62F8F
:1013C000472F60E170E00E9474094D2F61E170E0E9
:1013D0008C2FDF91CF910C947409FF920F931F9380
:1013E000CF93DF93FB01DC0157961C921E92569718
:1013F0005896FC908281811109C08381811106C0B9
:101400008481811103C085818823F9F0411551053C
:10141000E1F08A01EF0180E590E00E946702BE01E1
:101420006E5F7F4F2F2D30E0922F882744E050E0F1
:10143000845F9B4F0E94A305B8018F2D0E94DC0999
:101440000E94660281E090E002C080E090E0DF91BF
:10145000CF911F910F91FF900895FC0184858430F6
:1014600011F00C94110880E008958F929F92AF9232
:10147000BF92CF92DF92EF92FF920F931F93CF9381
:10148000DF93CDB7DEB72D970FB6F894DEBF0FBE52
:10149000CDBF7C0100E010E038EE832E33E0932EC8
:1014A000A12CB12C42E3C42E41E0D42E1C821B821D
:1014B0008D829E82AF82B886DA82C9820D87CE0184
:1014C00001960E942D0A811125C0F70144815581A2
:1014D00020E061E0802F0E94560780E590E00E94A6
:1014E000670263E070E0802F0E947E09833129F457
:1014F00062E070E0802F0E9401110E946602F701F5
:1015000084819581000F111FF801EB56FD4F9183E7
:10151000808305C00F5F1F4F0430110539F62D96EB
:101520000FB6F894DEBF0FBECDBFDF91CF911F91F4
:101530000F91FF90EF90DF90CF90BF90AF909F9072
:101540008F900895CF93DF93FC0124852430D1F050
:10155000EC010E942D0A843181F0882371F08831DA
:1015600061F08C3161F4E881F9810480F581E02D2E
:10157000CE01099521E0892B19F420E001C021E07A
:10158000822F01C080E0DF91CF910895CF92DF924A
:10159000EF92FF921F93CF93DF93FC0114851430D9
:1015A000A9F1EC0180E590E00E94670268E070E03C
:1015B000812F0E9401110E9466020E94A8036B0104
:1015C0007C01CE010E942D0A8823B1F061E070E019
:1015D00080E090E00E94DE020E94A803DC01CB01C3
:1015E0008C199D09AE09BF09883E9340A105B1053C
:1015F00040F38C850E944207EC85F0E0EE0FFF1F60
:10160000EB56FD4F1182108284E08C87DF91CF91E1
:101610001F91FF90EF90DF90CF9008954F925F92CF
:101620006F927F928F929F92AF92BF92CF92DF92F2
:10163000EF92FF921F93CF93DF93CDB7DEB72D9735
:101640000FB6F894DEBF0FBECDBF7C0195E9A92E81
:1016500092E0B92E10E0C12CD12C28EE422E23E0CE
:10166000522E612C712C32E3832E31E0932E1C829A
:101670001B824D825E826F8278869A8289821D8764
:10168000D5012D913D915D01F70184819581281748
:101690003907B1F4CE0101960E942D0A843169F018
:1016A000CE0101960E942D0A8C3151F4CE01019693
:1016B0000E946B09892B91F003C0CC24C394D12CD8
:1016C0001F5F1430A1F6CD2871F4D701ED91FC9184
:1016D0000480F581E02DC701099505C0CE01019672
:1016E0000E94C60AEDCF2D960FB6F894DEBF0FBE4E
:1016F000CDBFDF91CF911F91FF90EF90DF90CF9002
:10170000BF90AF909F908F907F906F905F904F9021
:1017100008952F923F924F925F926F927F928F9295
:101720009F92AF92BF92CF92DF92EF92FF920F9370
:101730001F93CF93DF93CDB7DEB72E970FB6F894F4
:10174000DEBF0FBECDBF7C016B015A010E940E0BA4
:1017500005E912E020E0612C712C88EE282E83E050
:10176000382E412C512C92E3892E91E0992E1C8227
:101770001B822D823E824F8258869A8289822D87D3
:10178000F801419151918F01F701848195814817AA
:10179000590741F4CE0101962E870E942D0A2E850D
:1017A0008731E9F02F5F243011F7C3012E960FB671
:1017B000F894DEBF0FBECDBFDF91CF911F910F9187
:1017C000FF90EF90DF90CF90BF90AF909F908F9061
:1017D0007F906F905F904F903F902F900895A5015C
:1017E000B601CE0101962E870E946A02680E791E0C
:1017F0002E85D8CFCF92DF92EF92FF920F931F9357
:10180000CF93DF93CDB7DEB7C254D1090FB6F894AA
:10181000DEBF0FBECDBFFC0182819381A481B58163
:1018200023968CAF9DAFAEAFBFAF239721E0239639
:101830002FAF239723964CAD5DAD6EAD7FAD239753
:101840004BAB5CAB6DAB7EAB89AF9AAFABAFBCAF14
:101850008DA79EA7AFA7B8AB28AB4DA55EA56FA57A
:1018600078A94FA358A769A77AA72EAB4BA95CA963
:101870006DA97EA949A35AA36BA37CA38B8F9C8FD0
:10188000AD8FBE8F44ED51E05C8B4B8B3FEF3D8BBA
:101890003E8B3F8B188E5E874D872AA7CFA0D8A49A
:1018A000E9A4FAA4CF86D88AE98AFA8A2CA309A1E6
:1018B0001AA12BA13CA109871A872B873C875A8341
:1018C00049838B839C83AD83BE836CE271E080E0AF
:1018D00090E00E94DE021FB7F89480919D02811172
:1018E00063C08AE990E0FC0124914EEA50E0FA01DD
:1018F000649130E0220F331F2A573F4FF901A59121
:10190000B4912C91622309F040C0E2E7F0E0249109
:10191000FA014491FC0194919923B9F1222339F100
:10192000233091F038F42130A9F0223001F584B54C
:101930008F7D12C0273091F02830A1F02430B9F407
:10194000809180008F7D03C0809180008F7780938D
:1019500080000DC084B58F7784BD09C08091B00030
:101960008F7703C08091B0008F7D8093B000E92F06
:10197000F0E0EE0FFF1FE458FF4FA591B4918FB731
:10198000F8949C91492B4C938FBF8AE00E941111CF
:101990008CB580618CBD8CB580648CBD8DE00E945F
:1019A00011118BE00E94111180919D028F5F809335
:1019B0009D021FBF229A80E590E00E94670260E8C6
:1019C00080E090E00E94D20565E58BE190E00E9406
:1019D000D20565E58AE190E00E94D2050E94660288
:1019E00080E090E490939F0280939E0280E090E6D6
:1019F0009093A7028093A60280E098E49093A102BE
:101A00008093A00280E098E69093A9028093A802B8
:101A100080E090E59093A3028093A20280E090E79B
:101A20009093AB028093AA0280E098E59093A50280
:101A30008093A40280E098E79093AD028093AC027B
:101A400080E590E00E94670246E050E062E071E0CD
:101A500089E090E00E94A30544E050E0BE016D5F84
:101A60007F4F8FE090E00E94A30544E050E0BE016C
:101A7000615F7F4F81E090E00E94A30544E050E069
:101A8000BE016B5E7F4F85E090E00E94A3050E943F
:101A9000660281E08C8789859A85AB85BC858093B9
:101AA000B6029093B702A093B802B093B902CE5B8E
:101AB000DF4F0FB6F894DEBF0FBECDBFDF91CF91E1
:101AC0001F910F91FF90EF90DF90CF900895CF92EC
:101AD000DF92EF92FF920F931F93CF93DF936B01EF
:101AE000770FEE08FF08F7FE1BC0EC016DE20E94C5
:101AF00087008C0144275527BA014C195D096E09EE
:101B00007F092AE0CE010E94FE03800F911FDF9122
:101B1000CF911F910F91FF90EF90DF90CF9008959C
:101B20002AE0B701A601DF91CF911F910F91FF909D
:101B3000EF90DF90CF900C94FE038F929F92AF9224
:101B4000BF92CF92DF92EF92FF920F931F93CF93AA
:101B5000DF93B82E4B018A01A22E68E270E00E944A
:101B60007E09C82FD0E069E270E08B2D0E947E09CB
:101B7000DC2FCC27C82B9E013770CB2CD12CC60173
:101B8000880F991FAC014A555D4F6A01FA018081A7
:101B90009181820F931FA801420F531F413058407B
:101BA00098F060E078E07B01E21AF30AA701B40143
:101BB0000E947305A8014E195F09B4016E0D7F1DC7
:101BC000F6018081918102C0A801B4010E947305D1
:101BD000A1100EC0C00FD11F4D2F68E270E08B2DF9
:101BE0000E9474094C2F69E270E08B2D0E947409E9
:101BF000DF91CF911F910F91FF90EF90DF90CF90E9
:101C0000BF90AF909F908F9008959F92AF92BF9298
:101C1000CF92DF92EF92FF920F931F93CF93DF93B8
:101C2000982E8B015A01690164E270E00E947E09DE
:101C3000E82EF12C65E270E0892D0E947E09FE2CD1
:101C4000EE24E82AE701C00FD11F9E013770E92C6E
:101C5000F12CC701880F991FAC0142565D4F7A01E4
:101C6000FA0180819181820F931FA9014C0D5D1DA6
:101C70004130584090F000E018E0021B130BA8011F
:101C8000B5010E94A305A601401B510BB501600FD1
:101C9000711FF7018081918102C0A601B5010E94E8
:101CA000A305CC0DDD1D4D2F64E270E0892D0E944F
:101CB00074094C2F65E270E0892DDF91CF911F915F
:101CC0000F91FF90EF90DF90CF90BF90AF909F90DB
:101CD0000C947409FF920F931F93CF93DF93F82E08
:101CE000C0E0D0E08F2D0E9454058C01892B21F09B
:101CF0008F2D0E945405EC01C017D10799F7CE0132
:101D0000DF91CF911F910F91FF9008952F923F92F5
:101D10004F925F926F927F928F929F92AF92BF92FB
:101D2000CF92DF92EF92FF920F931F93CF93DF93A7
:101D3000CDB7DEB765970FB6F894DEBF0FBECDBF47
:101D40007C016B013A01FB0120E080E090E06AE059
:101D50003191332309F140ED430F4A3080F4689FFD
:101D6000A001699F500D1124CA01C097830F911DD6
:101D700037FD9A958F3F910559F350F313C03E32CA
:101D800089F4233079F0D301A20FB11D12968C9300
:101D90002F5F80E090E0DCCF233021F4F3018583D6
:101DA00081E021C0F7014281538164817581809176
:101DB000B0029091B102A091B202B091B302481763
:101DC00059076A077B0709F49EC10E94A80387018F
:101DD000085F1F4F6F7077277C5FC8010E94FD0866
:101DE000813019F080E090E0F3C184ED91E09A83B6
:101DF0008983F70182819381A481B5818B839C8340
:101E0000AD83BE8345E350E0BE016F5F7F4FC801E5
:101E10000E94ED09892B19F4C12CD12C6FC10E94AD
:101E2000A803F701778366837627672776277A8367
:101E3000698342E050E0BE016F5F7F4FC8010E949E
:101E4000180581E090E09E878D8742E050E0BE015A
:101E5000635F7F4FC8010E94180580E091E09E8774
:101E60008D8742E050E0BE01635F7F4FC8010E9452
:101E700018051E861D8642E050E0BE01635F7F4F5D
:101E8000C8010E94180542E050E0BE01635F7F4F29
:101E9000C8010E94180542E050E0BE01635F7F4F19
:101EA000C8010E9418055601F5018081882311F1AF
:101EB000F6015F018191811115C045018C189D08C3
:101EC0001814190494F48F8641E050E0BE01615F5C
:101ED0007F4FC8010E941805A401B601C8010E94E5
:101EE000180503C08E3229F7E8CF6501FFEFCF1A3E
:101EF000DF0ADACF1F8641E050E0BE01615F7F4F0D
:101F0000C8010E941805C12CDD24D394DE86CD863D
:101F100042E050E0BE01635F7F4FC8010E94180598
:101F2000DE86CD8642E050E0BE01635F7F4FC80190
:101F30000E941805C8010E94A409892B09F46CCFDE
:101F400063E0A62EB12CF2E06F0E711C0E94A80374
:101F50001B012C01C8010E94E90618161906A4F0FD
:101F60000E94A803DC01CB0182199309A409B509D9
:101F700089389341A105B105D0F462E370E080E0B7
:101F800090E00E94DE02E6CFF70142815381648136
:101F90007581808D918DA28DB38D481759076A0781
:101FA0007B0741F4848D958DC59721F406C02FEFF2
:101FB0003FEF9AC02EEF3FEF97C0F70181A192A1AA
:101FC0000C970CF4A6C04CE050E0BE016F5F7F4F51
:101FD000C8010E94A1068B8190E0982F88272C8150
:101FE000822B9A8B898B298130E0322F22274A81DC
:101FF000242BF701468157814217530709F086C009
:1020000097FF84C08F709270892B09F0DEC0CF805B
:10201000D12CDC2CCC248885C82AC114D10409F425
:10202000D1C0812C912C8D8190E0982F88272E8112
:10203000822B8816990608F46FC0812C912C41E000
:1020400050E0BE016D5E7F4FC8010E94A1068B89E2
:10205000982F907C09F093C0811186C08B898111E3
:10206000EECF42E050E0BE01615F7F4FC8010E94A9
:10207000A10642E050E0BE01635F7F4FC8010E94AD
:10208000A106C8010E94C006C8010E94C006C8017E
:102090000E94C006C8010E94C00642E050E0BE0196
:1020A0006F5E7F4FC8010E94A1068F8598898115B8
:1020B000914009F069C02D853E85322723273227BC
:1020C0002130310509F060C089899A8981159440D1
:1020D00009F075C044E050E0B301C8012C8B3D8B82
:1020E0000E94A1062C893D896901F1E0AF1AB1086F
:1020F00029F02FEFC216D20609F428CFC8010E949A
:10210000E808C60165C08EEF9FEF62C02CEF3FEF7D
:10211000EBCF2DEF3FEFE8CF41E050E0BE01635F32
:102120007F4FC8010E94A1068D85811113C08D8546
:102130008111F2CFC8010E94C006C8010E94C006EA
:10214000C8010E94C006C8010E94C006FFEF8F1A96
:102150009F0A69CF8D859FEF980F9D87882339F35C
:10216000C8010E94C006F6CF8B899FEF980F9B8B0A
:10217000882309F473CFC8010E94C006F5CFC801B7
:102180000E94C0061B8A6ACF412C512C89899A89EA
:102190009827892798274816590638F4C8010E94BD
:1021A000C0068FEF481A580AF1CFEFEF8E1A9E0A39
:1021B0008C149D0409F043CF26EF3FEF95CF27EF16
:1021C0003FEF92CF2AEF3FEF8FCF2BEF3FEF8CCF38
:1021D00065960FB6F894DEBF0FBECDBFDF91CF91ED
:1021E0001F910F91FF90EF90DF90CF90BF90AF9035
:1021F0009F908F907F906F905F904F903F902F9027
:102200000895CF93C82F462F61E070E00E947409B3
:1022100061E070E08C2F0E947E098111F9CFCF918F
:10222000089590E0FC01EC55FF4F2491FC01E0572C
:10223000FF4F8491882399F090E0880F991FFC014B
:10224000EA57FF4FA591B491FC01E458FF4F8591E7
:1022500094918FB7F894EC91E22BEC938FBF089593
:10226000CF93DF93CDB7DEB76A970FB6F894DEBF92
:102270000FBECDBF789484B5826084BD84B5816083
:1022800084BD85B5826085BD85B5816085BD809141
:102290006E00816080936E001092810080918100B9
:1022A00082608093810080918100816080938100B1
:1022B000809180008160809380008091B100846073
:1022C0008093B1008091B00081608093B0008091D4
:1022D0007A00846080937A0080917A008260809393
:1022E0007A0080917A00816080937A0080917A00F0
:1022F000806880937A001092C100E091CC02F09146
:10230000CD0282E08083E091C802F091C902108280
:10231000E091CA02F091CB028FEC80831092D4023C
:10232000E091D002F091D10286E08083E091CE026C
:10233000F091CF02808180618083E091CE02F091A4
:10234000CF02808188608083E091CE02F091CF023D
:10235000808180688083E091CE02F091CF028081FD
:102360008F7D808304ED11E01A83098380916103DE
:1023700090916203A0916303B09164038B839C836B
:10238000AD83BE83CE0101960E94FA0B89E593E0EE
:102390000E94350A6FED71E08CEB92E00E943D02E5
:1023A0001A8309831B821C821D821E8280E590E0B5
:1023B0000E94670244E050E0BE016D5F7F4F8FE0F6
:1023C00090E00E9473056CEB72E0CE0101960E94D2
:1023D00047046CED71E08CEB92E00E943D0298EEB8
:1023E000892E93E0992EA12CB12C22E3C22E21E05C
:1023F000D22E89E593E00E940E0B85E9E82E82E05B
:10240000F82E10E01C821B828D829E82AF82B886DD
:10241000DA82C9821D87F701219131917F01809174
:102420005D0390915E032817390739F5CE010196B7
:102430000E942D0A873111F08C31F9F4CE010196FA
:102440000E946B09892BC9F08B819C81998B888BA9
:102450008D819E81AF81B8858A8B9B8BAC8BBD8B28
:1024600089859A85AB85BC858E8B9F8BA88FB98F0C
:10247000DF86CE868D858A8F0CC01F5F143011F6E3
:10248000198A188A8A8A9B8AAC8ABD8ADF86CE8698
:102490001A8F8A8D843009F49FC06DEE71E08CEB49
:1024A00092E00E94520211E0CE010E960E94A20A12
:1024B000882309F481C0CE010E960E946B09892BF6
:1024C00099F3CE010E960E945109082F682F8CEBCC
:1024D00092E00E9455010A3009F069C0112319F3F6
:1024E00068EF71E0CE010E960E94520268E072E041
:1024F000CE010E960E94520260E272E0CE010E966C
:102500000E94520262E372E0CE010E960E945202D5
:102510006CED71E0CE010E960E943D026DE372E01B
:10252000CE010E960E9452026DE472E0CE010E962C
:102530000E94520200E010E0802F806480937C00B3
:1025400080917A00806480937A0080917A0086FD81
:10255000FCCFE090780080917900F12CF82A64E5B6
:1025600072E0CE010E960E943D02B801CE010E9699
:102570000E94670D62E672E0CE010E960E943D0257
:10258000B701CE010E960E94670D67E672E0CE019C
:102590000E960E9452020F5F1F4F0630110561F622
:1025A0006EE672E0CE010E960E94520205C00D301A
:1025B00009F47ACF10E078CF61E070E080E090E03D
:1025C0000E94DE02CE010E960E94C60A66E772E005
:1025D0008CEB92E00E9452020E94BE010ACFEEEA0A
:1025E000F2E084ED91E09183808312821382148261
:1025F0001582E5E6F3E091838083128213821482D0
:102600001582EBE6F3E091838083128213821482B9
:102610001582E1E7F3E091838083128213821482B2
:102620001582E7E7F3E0918380831282138214829C
:102630001582EDE7F3E09183808312821382148286
:102640001582E4EBF2E0918380831282138214827C
:102650001582E3E8F3E0918380831282138214826F
:102660001582ECEBF2E01382128248EE53E060E058
:1026700070E0448355836683778322EA31E03183B7
:10268000208325EC30E03587248724EC30E0378741
:10269000268720EC30E0318B208B21EC30E0338B2F
:1026A000228B22EC30E0358B248B26EC30E0378B0C
:1026B000268B118E128E138E148EE9E8F3E091832F
:1026C00080831282138214821582EFE5F3E09183F6
:1026D000808380EC828388EA838381E0848381EB3A
:1026E0008583E9E5F3E01382128282EC91E0918325
:1026F000808380E590E0958384830895EE0FFF1F2B
:102700000590F491E02D099481E090E0F8940C9408
:10271000AB13A1E21A2EAA1BBB1BFD010DC0AA1F01
:10272000BB1FEE1FFF1FA217B307E407F50720F03A
:10273000A21BB30BE40BF50B661F771F881F991FB5
:102740001A9469F760957095809590959B01AC01FE
:0A275000BD01CF010895F894FFCFFA
:10275A0000C0DEADBEEFFEED0100000001005E002C
:10276A000000000000003B023B023B023B023B022E
:10277A003B023B023B023B023B023B023B020000A4
:10278A00000087006A026B0951092A0974081803B4
:10279A00C8014D09C60AA20A6C08A900A700610867
:1027AA009D00000000003B023B023B023B023B0251
:1027BA003B023B0249083B023B023B023B023B0213
:1027CA003B023B023B023B0200000000EA04180500
:1027DA002A08C0061306E904FD089A07E808ED0965
:1027EA007508A409E906A106420832082E08000065
:1027FA0000005501D1001E01FC0010019C010000DF
:10280A0000003B02D1003B023B023B023B020000BC
:10281A0000004B08890B350A000000003B02D1007A
:10282A00000000004704000000003B020D0A00738C
:10283A00657276657220697320617420006E65770F
:10284A0020636C69656E7400485454502F312E31E0
:10285A0020323030204F4B00436F6E74656E742DFA
:10286A00547970653A20746578742F68746D6C00B9
:10287A00436F6E6E656374696F6E3A20636C6F7333
:10288A006500526566726573683A2035003C2144DA
:10289A004F43545950452048544D4C3E003C6874AF
:1028AA006D6C3E00616E616C6F6720696E70757445
:1028BA00200020697320003C6272202F3E003C2FCA
:1028CA0068746D6C3E00636C69656E74206469732C
:0A28DA00636F6E6E65637465640041
:00000001FF
