:100000000C945D000C9485000C9485000C94850084
:100010000C9485000C9485000C9485000C9485004C
:100020000C9485000C9485000C9485000C9485003C
:100030000C9485000C9485000C9485000C9485002C
:100040000C94AC020C9485000C941C030C94F602E6
:100050000C9485000C9485000C9485000C9485000C
:100060000C9485000C94850000000008000201003B
:100070000003040700000000000000000000000072
:10008000250028002B0000000000240027002A0083
:10009000040404040404040402020202020203032E
:1000A0000303030301020408102040800102040836
:1000B00010200102040810200F0411241FBECFEFEE
:1000C000D8E0DEBFCDBF11E0A0E0B1E0E2E9F8E0AA
:1000D00002C005900D92A633B107D9F721E0A6E33F
:1000E000B1E001C01D92AC3DB207E1F710E0CDE5F3
:1000F000D0E004C02197FE010E943C04CC35D1071A
:10010000C9F70E944E030C9447040C94000090E041
:10011000FC01EC55FF4F2491FC01E057FF4F849107
:10012000882399F090E0880F991FFC01EA57FF4F50
:10013000A591B491FC01E458FF4F859194918FB73C
:10014000F894EC91E22BEC938FBF089590E0FC01C2
:10015000E859FF4F3491FC01EC55FF4F2491FC010D
:10016000E057FF4FE491EE2309F43BC0332339F10C
:10017000333091F038F43130A9F0323001F584B5E4
:100180008F7D12C0373091F03830A1F03430B9F49F
:10019000809180008F7D03C0809180008F77809355
:1001A00080000DC084B58F7784BD09C08091B000F8
:1001B0008F7703C08091B0008F7D8093B000F0E016
:1001C000EE0FFF1FE458FF4FA591B4918FB7F8943D
:1001D000EC91611103C020952E2301C02E2B2C938E
:1001E0008FBF08953FB7F89480913B0190913C01F7
:1001F000A0913D01B0913E0126B5A89B05C02F3FBF
:1002000019F00196A11DB11D3FBFBA2FA92F982F3C
:100210008827820F911DA11DB11DBC01CD0142E0B7
:10022000660F771F881F991F4A95D1F708958F92FF
:100230009F92AF92BF92CF92DF92EF92FF926B01AB
:100240007C010E94F2004B015C01C114D104E10465
:10025000F104F1F00E94F200DC01CB018819990948
:10026000AA09BB09883E9340A105B10570F321E0BE
:10027000C21AD108E108F10888EE880E83E0981EC2
:10028000A11CB11CC114D104E104F10419F7DDCFA4
:10029000FF90EF90DF90CF90BF90AF909F908F90A6
:1002A0000895CF92DF92EF92FF920F931F93CF9317
:1002B000DF936C017A018B01C0E0D0E0CE15DF0541
:1002C00089F0D8016D918D01D601ED91FC910190DD
:1002D000F081E02DC6010995892B11F47E0102C041
:1002E0002196ECCFC701DF91CF911F910F91FF9025
:1002F000EF90DF90CF900895FC01918D828D98173B
:1003000061F0828DDF01A80FB11D5D968C91928DF9
:100310009F5F9F73928F90E008958FEF9FEF0895F6
:10032000FC01918D828D981731F0828DE80FF11DBF
:10033000858D90E008958FEF9FEF0895FC01918DDA
:10034000228D892F90E0805C9F4F821B91098F73D3
:10035000992708958FE391E00E949E0121E0892B67
:1003600009F420E0822F0895FC01848DDF01A80F9D
:10037000B11DA35ABF4F2C91848D90E001968F73CD
:100380009927848FA689B7892C93A089B1898C91EC
:1003900080648C93938D848D981306C00288F389B2
:1003A000E02D80818F7D80830895EF92FF920F93DF
:1003B0001F93CF93DF93EC0181E0888F9B8D8C8D11
:1003C000981305C0E889F989808185FD24C0F62E3F
:1003D0000B8D10E00F5F1F4F0F731127E02E8C8DD8
:1003E000E8120CC00FB607FCFACFE889F9898081C2
:1003F00085FFF5CFCE010E94B401F1CF8B8DFE01B8
:10040000E80FF11DE35AFF4FF0820B8FEA89FB8959
:100410008081806207C0EE89FF896083E889F9895D
:1004200080818064808381E090E0DF91CF911F9193
:100430000F91FF90EF900895CF93DF93EC01888D9B
:100440008823C9F0EA89FB89808185FD05C0A889D8
:10045000B9898C9186FD0FC00FB607FCF5CF80815E
:1004600085FFF2CFA889B9898C9185FFEDCFCE01A8
:100470000E94B401E7CFDF91CF91089580E090E032
:10048000892B29F00E94AA0181110C940000089583
:10049000EF92FF920F931F93CF93DF9304E010E04E
:1004A000880F991FFC01E050FF4F80819181282F18
:1004B0002170E22E9C0135952795422F4170F42E34
:1004C0009C013595279535952795D22FD17063E0FE
:1004D000959587956A95E1F7C82FC1706E2D88E0D4
:1004E0000E94A6006F2D89E00E94A6006D2F8AE071
:1004F0000E94A6006C2F8BE00E94A60001501109FB
:1005000069F7DF91CF911F910F91FF90EF900895C0
:10051000CF93DF93009779F0FC0101900020E9F779
:100520003197AF01481B590BBC018FE391E00E944A
:100530005101EC0102C0C0E0D0E042E050E060E2D6
:1005400071E08FE391E00E9451018C0F9D1FDF91BC
:10055000CF9108950E9442041F920F920FB60F92FE
:1005600011242F933F938F939F93AF93BF938091C9
:10057000370190913801A0913901B0913A01309141
:10058000360123E0230F2D3720F40196A11DB11D64
:1005900005C026E8230F0296A11DB11D2093360148
:1005A0008093370190933801A0933901B0933A01B9
:1005B00080913B0190913C01A0913D01B0913E01A1
:1005C0000196A11DB11D80933B0190933C01A09326
:1005D0003D01B0933E01BF91AF919F918F913F91AB
:1005E0002F910F900FBE0F901F9018951F920F9292
:1005F0000FB60F9211242F933F934F935F936F93F6
:100600007F938F939F93AF93BF93EF93FF938FE36A
:1006100091E00E94B401FF91EF91BF91AF919F9142
:100620008F917F916F915F914F913F912F910F909B
:100630000FBE0F901F9018951F920F920FB60F923A
:1006400011242F938F939F93EF93FF93E0914F018A
:10065000F09150018081E0915501F091560182FDA9
:1006600012C09081809158018F5F8F732091590142
:10067000821751F0E0915801F0E0E15CFE4F958F58
:100680008093580101C08081FF91EF919F918F91DC
:100690002F910F900FBE0F901F901895789484B5EE
:1006A000826084BD84B5816084BD85B5826085BD6E
:1006B00085B5816085BD80916E00816080936E00FC
:1006C00010928100809181008260809381008091EE
:1006D000810081608093810080918000816080939F
:1006E00080008091B10084608093B1008091B0005F
:1006F00081608093B00080917A00846080937A005A
:1007000080917A00826080937A0080917A00816083
:1007100080937A0080917A00806880937A001092AA
:10072000C10088E00E94870089E00E9487008AE07B
:100730000E9487008BE00E948700E0914F01F091BA
:10074000500182E08083E0914B01F0914C011082D6
:10075000E0914D01F0914E018FEC80831092570192
:10076000E0915301F091540186E08083E0915101C2
:10077000F0915201808180618083E0915101F0917C
:100780005201808188608083E0915101F091520193
:10079000808180688083E0915101F09152018081D5
:1007A0008F7D808308EC10E083E291E00E94880254
:1007B000C0E0D0E0CE010E94480265E070E080E039
:1007C00090E00E9417012196C830D10599F7015099
:1007D000110951F768EE73E080E090E00E94170184
:1007E00008EC10E08BE291E00E948802C7E0D0E0C4
:1007F000CE010E94480265E070E080E090E00E9437
:1008000017012197A8F70150110961F768EE73E00D
:1008100080E090E00E9417010E943E02C3CFEFE308
:10082000F1E01382128288EE93E0A0E0B0E08483CE
:100830009583A683B78384E191E09183808385ECDF
:1008400090E09587848784EC90E09787868780EC9A
:1008500090E0918B808B81EC90E0938B828B82EC8B
:1008600090E0958B848B86EC90E0978B868B118E35
:10087000128E138E148E0895EE0FFF1F0590F491C3
:10088000E02D099481E090E0F8940C944704F894EA
:02089000FFCF98
:1008920008000C0004000600020003000100090029
:1008A20000000000D50151019E017C0190011C0253
:1008B2000D0A00636F756E74657220636C6F636BF3
:0608C20077697365000078
:00000001FF
